:100000000C94B7010C94D4010C94D4010C94291CC9
:100010000C94D4010C94D4010C94D4010C94D4010C
:100020000C94D4010C94D4010C944F210C942222F2
:100030000C948D1A0C94D4010C94D4010C94D4011A
:100040000C94D4010C94D4010C94D4010C94D401DC
:100050000C94D4010C94451B0C94D4010C94D40141
:100060000C94D4010C94D4010C94D4010C94D401BC
:100070000C94D4010C94D4010C94D4010C94D401AC
:100080000C94D4010C94D4010C94D4010C94D4019C
:100090000C94D4010C94D4010C94D4010C94D4018C
:1000A0000C94D4010C94D4010C94D40129001400B4
:1000B0001A000800150017002C002B000400160081
:1000C000070009000A00E000E1001D001B00060017
:1000D0001900050021522A00130012000C0018001C
:1000E0001C002800340033000F000E000D000B0030
:1000F000E400E500380037003600100011002152FE
:1001000001000100010001000100010001000100E7
:100110001E001F002000210022000100010001003C
:1001200001000100010001000100010001000100C7
:100130000100010001000100010027002600250048
:100140002400230001000100010001000100010062
:100150000100010001000100010001000100010097
:100160000100010001000100010001000100010087
:100170000100010001000100010001000100010077
:100180000100010001000100010001000100010067
:100190000100010001000100010001000100010057
:1001A0000100010001000100010001000100010047
:1001B0000100010001000100010001000100010037
:1001C0000100010001000100010001000100010027
:1001D0000100010001000100010001000100010017
:1001E0000100010001000100010001000100010007
:1001F000010001000100010001000100080363008B
:100200006F006D0000001A035A00610063006B006C
:1002100065007200790020004B006E006F007800CE
:1002200000000403090409023B00020100A0FA09CE
:100230000400000103010100092111010001224411
:100240000007058103080001090401000103000003
:100250000009211101000122B600070582032000D8
:10026000011201000200000008EDFE000000010183
:1002700002000105010902A10185020901A1000591
:100280000919012908150025019508750181020544
:1002900001093009311581257F950275088106090C
:1002A000381581257F950175088106050C0A3802ED
:1002B0001581257F950175088106C0C0050109805B
:1002C000A101850319012AB700150126B700950180
:1002D00075108100C0050C0901A101850419012ACE
:1002E000A002150126A002950175108100C005012C
:1002F0000906A1018506050719E029E71500250172
:100300009508750181020507190029EF15002501DF
:1003100095F07501810205081901290595057501FA
:100320009102950175039101C005010906A101051E
:100330000719E029E7150025019508750181029547
:1003400001750881010507190029FF150026FF0026
:100350009506750881000508190129051500250174
:10036000950575019102950175039101C000112455
:100370001FBECFEFDAE0DEBFCDBF11E0A0E0B1E0FD
:10038000E2EFF9E402C005900D92A83AB107D9F75F
:1003900022E0A8EAB1E001C01D92AC3DB207E1F74E
:1003A0000E9410140C94A5240C9400008430B8F41E
:1003B0006630A8F4473098F4E42FF0E097E0699FA6
:1003C000E00DF11D11249AE2899FE00DF11D112429
:1003D000EE0FFF1FE455FF4F85919491089581E042
:1003E00090E008950E94D601089581E008950E944A
:1003F000F501089581E008950E94F50108950E9495
:10040000FC01089508950E9402020895A6E0B0E05C
:10041000ECE0F2E00C94012449835A839E833091EE
:10042000AF0189819A8131111AC03E81332399F03D
:10043000222389F00E94A307182F682F89819A81AF
:100440000E947F0769817A81812F0E94AA0E2696D9
:10045000E3E00C941D240E949107182FF3CF0E9413
:10046000A30769817A81F1CFFC01262F4081518158
:1004700062817381848195810E9406020895CF93E1
:10048000DF93D82FC92F61E00E9434026D2F7C2F9B
:100490000E94F701DF91CF910895CF93DF93D82F7A
:1004A000C92F60E00E9434026D2F7C2F0E9403024E
:1004B000DF91CF91089581E008950E945B02089535
:1004C000CF93C82F0E9451068C2F0E945D022FEF00
:1004D00084E39CE0215080409040E1F700C00000A0
:1004E000CF91089581E00E9460020E94691B0895E7
:1004F00080E00E9460020E947A1B08950F931F9370
:10050000CF93DF938C0161E00E943402EC01B801CB
:100510000E94FF018823B1F1B801CE010E94591851
:10052000882381F1B801CE010E948D14882351F1F6
:10053000B801CE010E946214882321F1F80185815F
:10054000882381F0CA35FCE7DF0739F178F4C13040
:10055000ECE7DE07F9F0C330FCE7DF07C9F0C115AF
:10056000DC4771F0C8010E94FA010DC0CB35ECE701
:10057000DE07B1F0CC35DC47A9F70E94D70BF2CFEC
:100580000E94720280E0DF91CF911F910F91089538
:100590000E94E90B0E947802F5CF0E94E10BE2CFA6
:1005A0000E94E50BDFCF0E946A1A0E94F3020895B1
:1005B0000E94F7020E946F1A089581E0089508953D
:1005C000CF93DF93D82F0E94DD02C82F882319F024
:1005D0008D2F0E94DF028C2FDF91CF910895089517
:1005E0000E94E002089580E00E94F00208950E94B7
:1005F0009F180E94F0020895CF930E949F18C82F61
:100600008091AA018C1779F0C093AA010E94F91A6F
:100610006093AB017093AC018093AD019093AE01F8
:100620008C2F0E94F002CF910895ADE0B0E0EBE195
:10063000F3E00C940224488759876A877B878C876C
:100640009D8791110E94E20A1F8286E0FE01389682
:10065000DE01119601900D928A95E1F78D8181114D
:100660000DC029813A814B815C816D817E818F81B2
:100670000E94280A2D96E2E00C941E24CE010196D9
:100680000E943F028111EDCFF5CFFC0184818130C2
:1006900021F4808191810E94D5070895662329F075
:1006A0000E94FB150E94BC1608950E944416FACFC2
:1006B000CF93C82F882399F08CEF8C0F813A88F460
:1006C0008C2F0E944919882329F08C2F0E94EE1943
:1006D0000E947A0B8C2F0E94D7190E947A0BCF911F
:1006E000089580E28C0F883048F4C77081E001C023
:1006F000880FCA95EAF70E94C30AEFCF8BE58C0FEB
:10070000833038F42C2F2452330BC9010E94DC189B
:10071000E6CFE8E5EC0FEB3150F4F0E0EE0FFF1F11
:10072000E05DFE4F808191810E940219D8CF83E362
:100730008C0F8331A0F661E08C2F0E944E03CFCF47
:10074000882381F19CEF980F913A28F40E94EE19CA
:100750000E947A0B089590E2980F983050F48770B9
:1007600091E001C0990F8A95EAF7892F0E94C90A82
:10077000EFCF9BE5980F933028F480E090E00E9443
:10078000DC18089598E5980F9B3128F480E090E0FC
:100790000E940219089593E3980F933118F460E0D2
:1007A0000E944E0308951F93CF93DF93182FEB0100
:1007B0000E945803209739F4812F0E94A003DF91F3
:1007C000CF911F9108958FE99FE00197F1F700C045
:1007D00000002197EFCF60E070E0893311F460E50D
:1007E00070E00E94D3030895882321F00E94C30A79
:1007F0000E947A0B0895882321F00E94C90A0E9462
:100800007A0B0895A0E0B0E0E8E0F4E00C94FC235B
:100810006C01D62FC72FFC011581068102950F7040
:100820000E94B80AE82E8823F9F0E12E1123E1F0A6
:100830008C2F807F803461F080E28D0F8830F0F063
:100840008C2F807E803221F4D230C0F00023B1F0B2
:100850008091B80282FF12C082E00E94AA0B0E941F
:10086000B80A91E0E82EE926EC2FE295EF70C03C43
:10087000B0F5F0E0E955FB4D0C94EC23E12CF4CFFE
:100880000C2F0F70C03110F00295007F112399F0EA
:10089000002359F080E28D0F883010F0D11107C08D
:1008A000802F0E94C30A0E947A0B8D2F51C0802F87
:1008B0000E94D40AF8CF8D2F0E94A003002379F064
:1008C00080E28D0F883010F0D11104C0802F0E947B
:1008D000C90A03C0802F0E94DA0A0E947A0BEE2018
:1008E00089F00E94B40A80FD0DC0F60115820E94B5
:1008F000AE0A0E94DC06C6010E9418060E94AE0ADB
:100900000E94EC06CDB7DEB7E8E00C941824FC2F6B
:10091000FF70FF2EC07FC03219F0F29480EFF822F2
:10092000DD2341F0D130D1F1112309F444C000237B
:10093000F1F0BBCF8091B80282FD15C0112359F0B0
:10094000FF2029F08F2D0E94C30A0E947A0B80E0BD
:100950000E945803C4CF80E00E94A003FF2009F446
:10096000BECF8F2DB4CF112369F0011104C08F2D9C
:100970000E94F403B4CF013009F0B1CF8F2D0E9453
:10098000FA0AADCF0111ABCF8F2D0E94FB038F2D43
:100990000E94060B8F2D0E94E90AA1CF112321F09E
:1009A000063008F09CCFE3CF053008F098CF8F2DAC
:1009B0000E94FB0394CF0023D1F3D93349F42FEFE6
:1009C00087EE93E0215080409040E1F700C00000A6
:1009D0008D2F0E94A00383CF8C2F869586958370E0
:1009E000882369F0813009F07ACF8D2F9C2F937086
:1009F000111102C080E090E00E94021970CF8D2F8B
:100A00009C2F9370111102C080E090E00E94DC18CE
:100A100066CF612F8D2F0E944E0361CF8C2F837084
:100A2000811139C0111129C04D2F4295469547704B
:100A3000440F440F2D2F2F7030E0042E02C0220FE0
:100A4000331F0A94E2F780E090E0D4FF09C08FE002
:100A500090E002C0880F991F4A95E2F78095909523
:100A6000C695C695C370822B932BC23071F0C330EC
:100A700079F0C13039F00E94AC060E949F180E94A4
:100A8000F0022DCF0E94A306F8CF0E94B506F5CF45
:100A90000E94A006F2CF112361F1C0FFEECF4D2FCF
:100AA000429546954770440F440F2D2F2F7030E02C
:100AB000042E02C0220F331F0A94E2F780E090E078
:100AC000D4FF09C08FE090E002C0880F991F4A95BB
:100AD000E2F780959095C695C695C370822B932BAF
:100AE000C23069F0C33071F0C13031F00E94170795
:100AF000C4CF823010F2D3CF0E940E07BECF0E9427
:100B00002007BBCF0E94C406B8CFCF70112339F0A5
:100B10008C2F0E94DC068D2F0E94F403AECF8D2F08
:100B20000E94FB038C2F0E94EC06A7CFD23F31F12D
:100B300070F4D03FB9F0D13FB1F1112309F44EC0A8
:100B4000002309F448C08D2F0E94580396CFD33F4D
:100B5000E1F0D43F21F11111F3CF01114DC08C2FE1
:100B60008F71E1CF112341F0053008F086CF8C2F33
:100B70008F710E94FE0681CF0530F7CF8C2F8F71C9
:100B80001111D1CF0E94DC0678CF112329F08C2FD0
:100B90008F710E94D00671CF0E94CB066ECF8091DC
:100BA000B80282FD06C08C2F8F71112309F4BBCFD0
:100BB000E9CF112331F063E08C2F8F710E948C0BF1
:100BC0005CCF81E00E94AA0B023008F456CF82E08D
:100BD0000E94AA0B52CF8C2F8F71D4CF002309F41F
:100BE000BECFD93349F4EFEFF7EE23E0E150F04008
:100BF0002040E1F700C000008D2F0E94A0033DCFF0
:100C00000F931F93CF93DF93EC01688179818D81DE
:100C10000E94E2078C010E9429070E949F06B801EA
:100C2000CE010E940204DF91CF911F910F91089590
:100C3000CF93DF93EC018C81882399F0CE010E9441
:100C40007E02811111C00E94B80A882351F08D8163
:100C5000882339F08091B80282FF03C082E00E94AD
:100C6000AA0BDF91CF910895CE010E940006CE011C
:100C70000E944D02F6CF80E090E00E94DC1880E0F8
:100C800090E00E9402190E94E20A0E947A0B0E94E0
:100C9000D9160E94BC1608950E94051A0E943B06B0
:100CA00008950E94D10A0E944C060895282F92951B
:100CB0009F70963091F060F4925F9F70923030F4A4
:100CC00081E0203F79F030F4283E30F080E0089554
:100CD0009A5FF3CF243FD1F7089581E0283EE0F3F7
:100CE000213FF9CF0895FC018481882339F0808168
:100CF00091810E94D5070E945606089580E00895CC
:100D0000A6E0B0E0E6E8F6E00C9402242696E2E0E5
:100D10000C941E24A7E0B0E0E0E9F6E00C94022475
:100D20002796E2E00C941E2408950E9494060895EC
:100D30000E9495069093CB018093CA01089508956F
:100D40000E94980608952091CA013091CB01822B10
:100D5000932B0E94980608952091CA013091CB01EF
:100D6000822393230E94980608952091CA0130910E
:100D7000CB01822793270E94980608950E9494062B
:100D800008950E94BE0608950E94C1069093C9016D
:100D90008093C801089580E090E00E94C406089501
:100DA00021E030E0A90102C0440F551F8A95E2F707
:100DB000CA010E94C406089521E030E002C0220F5B
:100DC000331F8A95E2F78091C8019091C901822B67
:100DD000932B0E94C406089521E030E002C0220F48
:100DE000331F8A95E2F7209530958091C801909144
:100DF000C901822393230E94C406089521E030E0B4
:100E000002C0220F331F8A95E2F78091C8019091AA
:100E1000C901822793270E94C40608952091C80122
:100E20003091C901822B932B0E94C4060895209112
:100E3000C8013091C901822393230E94C4060895FA
:100E40002091C8013091C901822793270E94C406CE
:100E5000089508959B01677091E001C0990F6A950C
:100E6000EAF763E0369527956A95E1F7220F331F7D
:100E7000220F331FFA01E20FF31F40E050E0682F0A
:100E800070E08191DF0111979B01042E02C036951D
:100E900027950A94E2F721702195282729232827EE
:100EA0002C934F5F5F4F4430510559F708959C01D3
:100EB000982F977083E0369527958A95E1F7220F52
:100EC000331F220F331FFB01E20FF31F40E050E0FE
:100ED00080E0219130E0092E02C0369527950A94D2
:100EE000E2F721703327042E01C0220F0A94EAF79B
:100EF000822B4F5F5F4F4430510559F70895282FDB
:100F0000862F963068F4273058F4622F70E027E07F
:100F1000929F600D711D112440EB51E00E942A0741
:100F20000895292F963068F4873058F490E060EBEC
:100F300071E037E0239F800D911D11240E94570717
:100F4000089580E00895A0E0B0E0E9EAF7E00C94AD
:100F5000FB238C01E090C801F090C9018091CA0187
:100F60009091CB01E82AF92ACFE0D0E0CC24C394B9
:100F7000D12CC6010C2E02C0880F991F0A94E2F7EB
:100F80008E219F21892B49F4219798F7B12C8B2D25
:100F9000CDB7DEB7E9E00C941724BC2EB8018C2F36
:100FA0000E94B60E019781F3F2CFCF93DF93D82F33
:100FB000C92F0E94A3076D2F7C2F0E94B60EDF91D0
:100FC000CF9108951F93CF93DF93162FD72F909132
:100FD000AF01992341F0862F972F0E94D507DF910B
:100FE000CF911F910895882381F0862F972F0E941B
:100FF000A307C82F682F812F9D2F0E947F07612F85
:101000007D2F8C2F0E94B60EEACF862F972F0E943D
:101010009107C82FF4CF0F931F93CF93E091CC018A
:10102000C7E08091CD018E1304C0CF911F910F9125
:1010300008950E2F10E0CE9FF0011124E253FE4FD1
:1010400020813181428153816481758186810E9432
:101050008A06F8013196E770E4CF209106023091BC
:101060000702409108025091090260910A027091B2
:101070000B0280910C020E948A06089580910C0256
:10108000803178F480910B02882359F0E091CC01F3
:101090002091CD01309107024091060257E02E13B6
:1010A00001C008956E2F70E05E9FF0011124DF01F2
:1010B000A253BE4F14968C911497882361F1119618
:1010C0008C911197831327C08C91841324C015969B
:1010D0008C91159781111FC012968D919C91A091B2
:1010E0000802B09109028A1B9B0B883C910598F479
:1010F00080910C028F70806180930C02EC52FE4F45
:1011000080818F708061808386E092E00E94180663
:101110000E940B080895FB013196E770C0CFE09163
:10112000CC019091CD0127E0E91302C080E0089541
:10113000AE2FB0E02E9FF0011124E253FE4F31811B
:10114000361306C03081381303C03581341304C010
:10115000FD013196E770E8CF81E008958F929F926C
:10116000AF92BF92DF92EF92FF920F931F93CF93B4
:10117000DF93CDB7DEB72D970FB6F894DEBF0FBE65
:10118000CDBF8C0186E0F801DE01189601900D922A
:101190008A95E1F7F801E080F580A280B380848130
:1011A00096E0892E92E0992E90910A0291111BC02F
:1011B000882309F4FCC0FF2009F43DC1C8010E9446
:1011C0007306882309F437C187E0F801D401019040
:1011D0000D928A95E1F7C4010E9445030E943E08E2
:1011E0000E942D08E4C0D0900B022091080230919B
:1011F0000902A501421B530BDD2009F4DBC0483C6A
:10120000510508F0A6C0882309F4D1C090910702C7
:10121000918080910C02803108F06BC0991228C037
:10122000909106029E1124C0F1105DC08F70806104
:1012300080930C020E942D0886E092E00E9418061E
:1012400080910C02F8018683F12C8F2D2D960FB61C
:10125000F894DEBF0FBECDBFDF91CF911F910F91EC
:10126000FF90EF90DF90BF90AF909F908F90089588
:10127000F11039C040E0692D8E2D0E948F0840E0AA
:10128000692D8E2D0E948F08F82E8111DDCF888563
:1012900099850E94D507292F22952F70903450F4FC
:1012A0009F70223080F0992399F0F8019681903157
:1012B00078F4CBCF2A5F2F70223078F0C8010E94DB
:1012C0001806FD2CC2CF992319F0882309F4BDCF4D
:1012D000805E883008F4B9CFF1CF803F08F4B5CFF5
:1012E000815F8230F7CF80910C02816080930C0285
:1012F000ABCF991207C0909106029E1103C0FF2048
:1013000009F479C0C8010E947306882309F493C0C8
:10131000FF2009F490C080910C02803288F0209167
:101320000602309107023A832983BC82AB829091F6
:101330000A029D831E828F83CE0101960E941806A9
:1013400087E0F801A6E0B2E001900D928A95E1F7FE
:1013500045CF90910C029031A0F4488559856A855B
:101360007B858C859D850E94800686E092E00E94A8
:10137000180687E0F40111928A95E9F70E942D087A
:1013800063CF8823A1F02091070281812813BACF6F
:10139000809106028E11B6CFF110B4CF9683C801AA
:1013A0000E94180687E0F40111928A95E9F7FF245C
:1013B000F3944BCF483C510508F041C08823B9F362
:1013C000FF20C9F190910702818198132AC0809172
:1013D00006028E1126C080910C0280FD19C080315A
:1013E000B8F08683807F803F39F08681982F907F88
:1013F000905F8F70892B8683C8010E94180687E052
:10140000F801A6E0B2E001900D928A95E1F7E8CEEE
:1014100087E0F801A6E0B2E001900D928A95E1F72D
:10142000C6CFC8010E94730681118ACF80910C0239
:10143000816080930C02C8010E941806B8CF4885CD
:1014400059856A857B858C859D850E94800691CF14
:10145000AEE0B0E0EEE2FAE00C9401242887398790
:101460004A875B876C877D878E87CE0108960E94AE
:10147000AE088823B1F06C85662341F02885398554
:101480004A855B857D858E850E948A0617E080915E
:10149000CC019091CD0189133EC02E96E3E00C94CF
:1014A0001D2487E0FE013896DE01119601900D9211
:1014B0008A95E1F72091CD014091CC018C8588235C
:1014C00029F330E0C90101968770992750E084170D
:1014D000950799F097E0929FD001939FB00D11244A
:1014E000A253BE4FFE01319601900D929A95E1F7FD
:1014F0008093CD010E940B08C9CF0E945106109223
:10150000CD011092CC0187E0E6E0F2E0DF011D9210
:101510008A95E9F7BBCF189FC001112482539E4FD3
:101520000E94AE08882309F4B8CFE091CC011E9F39
:10153000F0011124E253FE4F208131814281538119
:101540006481758186810E948A068091CC0190E039
:101550000196877099278093CC0199CF80913502AD
:1015600086958695869508958091350287700895B1
:1015700090913502977081E0911101C080E008954B
:1015800080916102089590916102982B909361027D
:101590000895982F9095809161028923809361022C
:1015A000089510926102089590916002982B909393
:1015B00060020895982F909580916002892380930E
:1015C0006002089510926002089508950E94E50A4D
:1015D000089590913602292F2823222331F08095F7
:1015E0008923809336020E94E60A089508950E9496
:1015F000F60A089590913702292F2823281729F0F9
:10160000982B909337020E94F70A08959091370221
:10161000292F2823222331F08095892380933702B4
:101620000E94F70A089580913702882329F01092CA
:10163000370280E00E94F70A0895CF93DF93C091AC
:10164000610280916002C82BD0913702DD2331F016
:101650000E94281981110E94130BCD2B8C2FDF9132
:10166000CF910895CF93DF93C0910201D0910301F0
:101670000E941D0B8883C0910201D091030148E0B4
:1016800050E06DE272E0CE010E943D24892B59F0BA
:1016900088E0FE01ADE2B2E001900D928A95E1F79B
:1016A000CE010E94B318DF91CF910895CF93DF93BD
:1016B000C0910001D09101010E941D0B8983C0914E
:1016C0000001D091010140E250E06DE072E0CE01F6
:1016D0000E943D24892B59F080E2FE01ADE0B2E08A
:1016E00001900D928A95E1F7CE010E94BE18DF911C
:1016F000CF91089580912F01882339F08091B7020E
:1017000087FF03C00E94560B08950E94320B089574
:1017100008950E94880B08959091B80292FF11C01D
:1017200098E0899F90011124622B609335020E94FA
:10173000DC06809135028695869586950E94890BF8
:1017400008950E94DC0608951092350280E00E9400
:10175000890B0895909135028095892380933502F5
:10176000282F277021110DC0891759F09091B802C8
:1017700092FF07C08695869586950E94EC060E948A
:10178000A40B08959091B80292FB222720F9281704
:1017900069F080FB92F99093B8028091B702909122
:1017A000B8020E940A0C82E00E94AA0B0895809160
:1017B000B80282FB882780F991E089270E94C20B3A
:1017C000089581E00E94C20B089580E00E94C20B40
:1017D00008956FEF7FEF80E090E00E948F240895DE
:1017E00080E090E00E945B249C0181E0253E3E4F1A
:1017F00009F080E0089582E090E00E94532408956B
:1018000083E090E00E945324089584E090E00E94D9
:101810005B240895BC0184E090E00E948F24089529
:10182000AB01BC018FE090E00E9483240895AB01DE
:10183000BC0183E190E00E948324089560E070E0A1
:10184000CB010E94170C089560E070E0CB010E946C
:10185000100C0E941E0C0895A8E0B0E0E2E3FCE04A
:101860000C94022465EE7EEF80E090E00E948F24CD
:1018700060E082E090E00E94712481E090E090932B
:10188000CB018093CA0161E083E090E00E94712463
:1018900060E074E184E090E00E948F2460E086E0E4
:1018A00090E00E94712460E087E090E00E94712443
:1018B00040E050E0BA0188E090E00E94832460E0BC
:1018C00083E290E00E94712460E08CE090E00E944E
:1018D000712460E08DE090E00E94712419821A82E8
:1018E0001B821C821D821E821F82188648E050E0E7
:1018F00067E170E0CE0101960E94612440E050E073
:10190000BA018FE190E00E9483240E94240C289663
:10191000E2E00C941E240E942C0C08958EE090E0CE
:101920000E945324982F81E0911101C080E0089516
:10193000682F8EE090E00E9471240895A6E0B0E048
:10194000E4EAFCE00C9400240E94ED1A8C018091E2
:101950006202909163028017910779F019821A82CE
:101960000E94ED1ABC0149815A8180E090E00E94FA
:10197000150310936302009362022696E4E00C9430
:101980001C240E94E40F60936E0270936F02809398
:1019900070029093710260936A0270936B0280935D
:1019A0006C0290936D020895089508950E94D40CDE
:1019B000089508950E94D90C089581E0089587E163
:1019C00090E10E9425140E94D50C0E94D60C089527
:1019D0000E94FA110895089508950E94EB0C0E9448
:1019E000EC0C08950E94F00B811102C00E948B0C38
:1019F0000E94FB0B809372020E94050C9093B80228
:101A00008093B7020E9445140E94000C90E00E944F
:101A1000A0068091C8019091C9010E94C106089555
:101A20000E94E41A0E94AE0F0E94FD110E942A112A
:101A30000E94F20C0E94EF020E9448140E940F12B2
:101A40000E94DA0C0895A6E0B0E0E9E2FDE00C9413
:101A5000F9230E94DD0C81110CC00E949E0C0E9493
:101A6000FA110E94FA160E94FC022696EBE00C94F2
:101A700015240E944E1184E6A82E82E0B82E75012E
:101A800010E0F70101917F01812F0E9421101F5F5B
:101A9000163009F443C00817A1F38091720281FD4A
:101AA0000E9427100E94E80CC82E00E0992493940D
:101AB000802F0E942110182FF50191915F01891745
:101AC00039F1D82ED926F12CEE24E3948E2D8D21D8
:101AD0008823B1F0CC20A1F0F9820A830E94ED1A8C
:101AE0009C838B839D8291E08E2D8123811101C087
:101AF00090E049815A816B817C818D810E94150320
:101B0000F394EE0CF7E0FF12E1CFF501319710836B
:101B10000F5F063069F60E94C10CA1CF0813BDCF3C
:101B20009CCF1F93CF93DF930E94BB0EEC018115D6
:101B300022E5920708F053C0811540E5940708F0AC
:101B4000DDC0803E9105F8F48D3C910508F0AEC0F3
:101B5000883A910580F4853A910508F099C0813062
:101B6000910521F00497813A910550F4CE01DF915F
:101B7000CF911F910895885A91094B9708F48BC013
:101B8000C0E0D0E0F3CF811550E49507F8F4C1151B
:101B900080E2D80708F0CBC0C83ED10538F3CE01AB
:101BA0009A9581159F4160F78D2F0E945F0F182F26
:101BB000CE0199270E94BB0E212F30E0322F222721
:101BC000E901CC27DF71C82BD92BD0CF99270E94F0
:101BD000BB0ECC27DF70C82BD92BD06AC7CF80387B
:101BE00042E59407C8F5803652E5950708F067C0CE
:101BF000C03482E5D807B0F08C2F86958695877023
:101C000020E2829FC0011124C37021E030E0A901CD
:101C100002C0440F551FCA95E2F7EA01C82BD92B21
:101C2000DC68A4CFC03252E5D50708F041C08C2F44
:101C30008695869520E2829FC0011124C37021E021
:101C400030E0A90102C0440F551FCA95E2F7EA012E
:101C5000C82BD92BDD688ACF803C52E5950760F40C
:101C60008F71C03AD24508F03FC090E0982F882786
:101C7000EC01C46FD06A7ACF805C9245809708F0FF
:101C80007FCFDC2FCC27CC27DF71C06FD06A6ECF1F
:101C9000A497D0646BCFC85AD0E0CC0FDD1FCA59CF
:101CA000DE4F0990D881C02DD46460CFD0655ECF5F
:101CB000CF71D0E0DC2FCC27C16FD06A57CF86958B
:101CC0008695877020E2829FC0011124C37021E0B5
:101CD00030E0A90102C0440F551FCA95E2F7EA019E
:101CE000C82BD92BDA6842CF0E945F0FC82FD0E0F3
:101CF000DC2FCC27CC27DF71D06238CF8F710E94C8
:101D00005F0F65E0D695C7956A95E1F7CF70D0E093
:101D1000DC2FCC27282F30E084FF05C054E0220FB1
:101D2000331F5A95E1F7C22BD32BD0691FCF8D2FCC
:101D30008F710E945F0F182FCE0199270E94BB0E52
:101D4000212F30E0322F222722273F71282B392BD9
:101D5000E901D2CF462F672F763028F4473018F4A8
:101D60000E94F201089580E090E008950E94AA0E7A
:101D70000E94910D0895803E9105D1F1C8F4813300
:101D8000910509F47FC048F48932910509F46FC0C8
:101D90008A32910509F47DC0089589339105E1F0F7
:101DA00082389105C9F08533910509F45BC0089527
:101DB000843E9105D1F148F4823E910531F1833E94
:101DC000910541F181EE90E00895863E9105C1F1C3
:101DD000873E9105E1F108952091B702237021110A
:101DE00065C02091B80223FF14C089E290E00895F5
:101DF0002091B70220FD43C03091B80230FF09C0E6
:101E000024FF4EC080E090E008952091B70222FDAB
:101E1000F7CF08952091B70222FD45C03091B80256
:101E200030FD44C024FFF5CFEDCF2091B80221FF53
:101E3000F0CF8091B70284FDE5CF87EE90E0089562
:101E40002091B70223FFE5CF24FDDCCFF6CF209110
:101E5000B70223FD2EC03091B80231FFE3CF84EEEC
:101E600090E008952091B70225FFD3CFBECF2091F7
:101E7000B70225FD21C02091B80223FFCACF89E314
:101E800090E008952091B70226FFC3CF8AE290E048
:101E900008952091B70226FFBCCF81E390E008951A
:101EA00083EE90E0089582EE90E0089580EE90E059
:101EB000089586EE90E0089585E390E0AACF909192
:101EC000B70292FF10C041E0282F2471243009F09E
:101ED00040E031E0282F2871283009F030E0431726
:101EE00011F02CE0822793FF10C041E0282F2471CD
:101EF000243109F040E031E0282F2871283109F021
:101F000030E0431711F02CE082273091B80230FF07
:101F100010C051E0282F2171213009F050E041E03C
:101F2000282F2871283009F040E0541711F029E0DB
:101F3000822731FF10C041E0282F2171213109F0A3
:101F400040E031E0282F2871283109F030E04317B4
:101F500011F029E0822794FD877E08951092B9023E
:101F60001092BA021092BB021092BC020895CF9256
:101F7000DF92EF92FF92CF93DF9300D000D0CDB7E6
:101F8000DEB76B017C010E94FA11811112C00E9420
:101F9000F91A69837A838B839C83C61AD70AE80A65
:101FA000F90AC092B902D092BA02E092BB02F09252
:101FB000BC020F900F900F900F90DF91CF91FF9088
:101FC000EF90DF90CF900895A4E0B0E0EAEEFFE05C
:101FD0000C9402240E94FA11882371F00E94F91ACD
:101FE00069837A838B839C8369817A818B819C81CD
:101FF0002496E2E00C941E240E94F91A69837A83E5
:102000008B839C838091B9029091BA02A091BB020C
:10201000B091BC0229813A814B815C81280F391F24
:102020004A1F5B1F29833A834B835C83DDCF80E0AB
:10203000089508950E941910089508950E941D1092
:102040000895E82FF0E0EC53FD4F80810895089546
:1020500080EA8A95F1F7089500C008950E9428103B
:10206000089508950E9431100895EF92FF921F93F2
:10207000CF93DF9300D00F92CDB7DEB70E94FA1155
:10208000182F6091CA02882309F443C01A8219826A
:102090001B82862F90E09E012F5F3F4F7901B9018F
:1020A0008C539D4F0E941D128823E1F08091BD0248
:1020B00090E043E050E0B7018C539D4F0E943D24D7
:1020C00021E020937302892BC1F410E00E941E10BE
:1020D000812F0F900F900F90DF91CF911F91FF9064
:1020E000EF90089580917302882379F383E0F701DC
:1020F00011928A95E9F710927302E091BD02F0E027
:10210000EC53FD4F89819A81AB8180839183A283B7
:10211000DDCF70E06C537D4F8091BD0290E08C5319
:102120009D4F0E94A6120E943210D2CFF894E82F41
:10213000E295EF70F0E041A18F7021E030E0B9014D
:1021400002C0660F771F8A95E2F7CB01962F909514
:10215000942391A392A1892B82A3789408950F933D
:102160001F93CF93DF9386EF0E94961087EF0E9414
:10217000961081E30E949610CCE9D1E003EA11E0C9
:1021800089918F3F11F00E9496100C171D07C1F71F
:10219000DF91CF911F910F910895A0E0B0E0E3EDA2
:1021A000F0E10C94FC23EC01D62E062F10E0C801C0
:1021B0008D559E4F7C01FC0180818F3F09F445C005
:1021C000F894E82FE295EF70F0E091A18F7021E094
:1021D00030E001C0220F8A95EAF7892F822B81A374
:1021E00082A12095282322A378940E942C10ECE948
:1021F000F1E091E0C12C81918F3F81F0A82FA29551
:10220000AF70A05EB0E02C9130E08F7002C03595C9
:1022100027958A95E2F72170892F211180E0C82A3D
:10222000990F81E0E33AF80731F7F70180818F3F9A
:1022300011F00E94961061E0C11001C060E08D2D88
:102240000E942E10C00FD11FC882CDB7DEB7E8E0C4
:102250000C941824809104018091040190E0811174
:1022600001C093E09093CA0283E0891B8093BD0272
:102270000E94AF1086E0E4ECF2E0DF01982F1D929F
:102280009A95E9F7EEEBF2E0DF011D928A95E9F706
:1022900083E00E9492110E941A100895A6E0B0E017
:1022A000E4E5F1E10C9400241A821982FE013396D0
:1022B00084E0DF011D928A95E9F760E08E010F5FEF
:1022C0001F4FC8010E94CD1061E0C8010E94CD10CF
:1022D00062E0C8010E94CD1046E050E0B8018EEBEC
:1022E00092E00E943D2421E0892B99F420E0609146
:1022F000CA0270E06C537D4F43E08EEB92E00E9487
:102300009311182F0E943510812B2696E4E00C942F
:102310001C2486E0F801AEEBB2E001900D928A95A4
:10232000E1F7E5CF0895A0E0B0E0E9E9F1E10C9430
:10233000FC23D82EE92EF62ED72F042FC22F2223CE
:1023400079F081E0809376020E94ED1A90937502F5
:102350008093740280E0CDB7DEB7E8E00C941824D7
:10236000C0907602CC20B1F38091740290917502F6
:102370000E94161B059770F310E0A8016D2D7E2DAD
:102380008F2D9D2F0E943D24892B41F0A8016D2D9A
:102390007E2D8F2D9D2F0E944A24CC2D10927602E7
:1023A0008C2FD9CF0E94F00B811102C00E948B0CA0
:1023B0000E948E0C08950F931F93CF9308EC10E0AA
:1023C0000E94D223C82F81110DC08FE39CE9019791
:1023D000F1F700C00000015011090115110581F746
:1023E0000E94CD238C2FCF911F910F910895809142
:1023F0007A0208958091790208950E94DB118093FA
:1024000079020E94D21180937A020E94F711809380
:1024100004010E94FA1181110E94531208950E9432
:10242000FA11811102C00E945612089581E0909124
:102430007B029A3008F080E008950F931F93CF93AA
:10244000DF93EC01162F072F80917B028A3090F4E6
:10245000612F702FCE010E94A312811121C08091A3
:102460007B028F3FB1F40E94ED1A90937802809323
:10247000770209C080917702909178020E94161B22
:10248000843F914028F780E0DF91CF911F910F9119
:1024900008958F5F80937B028A3028F781E0F4CF24
:1024A00010927B02FBCF0E94E11B08950E94E41B67
:1024B0000895A0E0B0E0EFE5F2E10C94FC23FA010E
:1024C00069017801C82F880FDD0B3097B1F0DE016C
:1024D00093E0AA0FBB1F9A95E1F7AB5FBE4F119631
:1024E0008D919C91129784589D4F4C9150E0E41728
:1024F000F50708F4AF010E944A24CE010E94CF1CC8
:10250000182F8823D1F0E114F104B9F083E0CC0F47
:10251000DD1F8A95E1F7FE01EB5FFE4F438150E03E
:10252000E416F50608F4A701CB5FDE4F6C817D81D0
:1025300064587D4FC6010E944A24812FCDB7DEB773
:10254000E8E00C9418240E94BE1308950E94D7134B
:102550000895A8E0B0E0EFEAF2E10C940024809145
:102560008F0290919002A0919102B0919202BC01D1
:10257000CD010E94251B11E064367105810591058E
:1025800020F10E94E40FDC01CB010296A11DB11DD8
:1025900089839A83AB83BC8300E010E020E030E0C5
:1025A00044E050E0BE016F5F7F4F82E00E9459120D
:1025B000182F882351F00E94F91A60938F027093AC
:1025C00090028093910290939202812F2896E4E0EA
:1025D0000C941C248F929F92AF92BF92CF92DF9265
:1025E000FF920F931F93CF93DF93CDB7DEB728975A
:1025F0000FB6F894DEBF0FBECDBF6B01A090A60151
:10260000B090A70101E010E09E012C5F3F4F40E039
:1026100050E060E070E080E00E945912F82E8823BC
:1026200009F454C045018FEF881A980A80918B02F3
:1026300090918C02A0918D02B0918E02BC01CD01CF
:102640000E94251B6D837E838F8398876436710576
:102650008105910558F103E010E09E012F5F3F4F87
:1026600040E050E060E070E081E00E945912182FD5
:1026700063E070E0C4010E9449149C81981326C055
:10268000112321F10E94F91A60938B0270938C023E
:1026900080938D0290938E0289819A81AB81809381
:1026A000880290938902A0938A0211C063E070E0CF
:1026B000C4010E9449149C818913CDCFF501818109
:1026C0009281A38189839A83AB83E6CFF12C809199
:1026D000880290918902A0918A02F60180839183F9
:1026E000A2838F2D28960FB6F894DEBF0FBECDBF04
:1026F000DF91CF911F910F91FF90DF90CF90BF900E
:10270000AF909F908F900895A0E0B0E0EAE8F3E1E9
:102710000C94FA23F82EE92EB62EA72E8A010E94D9
:102720001612CC24C394D12C882319F08AE0C82E29
:10273000D12CC1E0D0E06B2D7A2D8F2D9E2DF8018C
:102740000995811116C02196CC16DD0694F0CC9F18
:10275000C001CD9F900D900D112420E030E045E3A5
:102760004A95F1F700002F5F3F4F28173907B9F757
:10277000E2CFCDB7DEB7EAE00C9416240F931F9397
:10278000CF93DF93D82FC92F8B014AEE52E10E94DD
:102790008413882339F049EA52E1B8018D2F9C2F28
:1027A0000E948413DF91CF911F910F9108950F9391
:1027B0001F93CF93DF93FB01C091A601D091A70196
:1027C000CE01019623E0DC0101900D922A95E1F7FC
:1027D00063E070E00E94491488836C817D818E8162
:1027E0009F81009184021091850220918602309190
:1027F0008702601771078207930751F06093840284
:102800007093850280938602909387020E94B70F8F
:10281000DF91CF911F910F9108950E94230D08958C
:102820000E94861A0E948D1E0E94DF0C0E94A71E25
:102830000E94100D0E94B41E0E94B91E0E940D1429
:102840000E94D31E0E94ED0CF7CF9093A9018093B4
:10285000A80108950E94E90B089580E00E942110CC
:10286000817008950E944E118FE39CE90197F1F762
:1028700000C000000E944E110E942D14882321F0F8
:102880000E942A140E94691B08950E943214089520
:102890000895FC01680F791F8FEF91E3E617F707A2
:1028A00009F408952191822728E030E087FF08C0CD
:1028B000880F89272150310921153105B9F7EECF4D
:1028C000880FF8CFCF93DF93EB0186319C4719F542
:1028D0000E94C00A9D819923A1F08A7A91E081111A
:1028E00001C090E090939302882349F085E30E9411
:1028F000D7190E947A0B80E0DF91CF91089589E289
:10290000F6CF80919302882321F085E30E94EE198F
:10291000F0CF89E2FBCF81E0EFCFCF93DF93EC01E3
:10292000FB018581882309F4D2C09E0130572332F0
:10293000310508F0B2C00E94050C9093B802809354
:10294000B702FE01E150F047E232F10520F4ED5408
:10295000FB4D0C94EC238091B70281608093B70209
:1029600093C08091B80288608093B8028DC0809136
:10297000B7028260F3CF8091B7028460EFCF80917D
:10298000B7028860EBCF8091B8028160EDCF809173
:10299000B8028260E9CF8091B7028061DFCF809179
:1029A000B7028062DBCF8091B7028064D7CF0E94EC
:1029B00051068091B7028068D1CF8091B7028C60B8
:1029C000CDCF8091B8028360CFCF8091B7028E7F48
:1029D000C5CF8091B802877FC7CF8091B7028D7F26
:1029E000BDCF8091B7028B7FB9CF8091B702877F2F
:1029F000B5CF8091B8028E7FB7CF8091B8028D7F1E
:102A0000B3CF8091B7028F7EA9CF8091B7028F7D1F
:102A1000A5CF8091B7028F7BA1CF0E9451068091F4
:102A2000B7028F779BCF8091B702837F97CF80913A
:102A3000B8028C7F99CF8091B70282FB992790F9D9
:102A400021E0922790FB82F990FB83F987CF809158
:102A5000B802982F909591708E7F892B90FB81F909
:102A600083CF9091B702892F8F7B96FF806476CFBA
:102A70000E9451069091B702892F97FB87F98058E1
:102A80006DCF81E00E94980C8091B7029091B802BE
:102A90000E940A0C0E94510680E0DF91CF910895B8
:102AA00080E0F0CF9091B702892F8F7E94FF8061F4
:102AB00055CF9091B702892F8E7F90FF81604ECFC6
:102AC0009091B802892F877F93FF88604DCF81E076
:102AD000E4CF282F35EB2303C001112497FF04C056
:102AE00080589109892F089580589F4FFBCF80917E
:102AF0009A0280FF0DC06091220170E0660F771F7F
:102B000060387105C0F561157105B9F1862F08951A
:102B100081FF07C06091220184E0689FB001112409
:102B2000EFCF82FF04C06091220188E0F6CF809150
:102B300099028823E9F0909121016091220170E0CF
:102B4000891730F093E0660F771F9A95E1F7D8CF99
:102B5000869F9001879F300D112483E0220F331F41
:102B60008A95E1F7692F70E0C9010E94D823C8CF88
:102B700068E070E0CBCF8FE7089581E00895809101
:102B80009A0280FF0CC060911E0170E075956795F8
:102B9000759567956115710561F1862F089581FF1F
:102BA00006C060911E0170E075956795F3CF609146
:102BB0001E0170E082FD15C0209198022223B1F021
:102BC00090911D0160911E0170E0291750F4269F1D
:102BD000A001279F500D1124692F70E0CA010E94A7
:102BE000D82360387105B0F28FE7089561E070E096
:102BF000D4CF81E00895E3E3E80FE331E0F5F0E0BE
:102C0000EB52FB4D0C94EC230E9477158195809339
:102C10009E0208950E947715FACF0E94771581953C
:102C200080939D0208950E947715FACF0E94BF15E8
:102C300080939F0208950E94BF158195F9CF0E944D
:102C4000BF1581958093A00208950E94BF15FACF09
:102C5000815D990B21E030E001C0220F8A95EAF7EF
:102C600080919C02822B80939C02089580919A020D
:102C7000816080939A02089580919A028260F9CFD0
:102C800080919A028460F5CF40919D028D3C59F469
:102C900080919E0287FF0DC010929E02442359F43A
:102CA0001092990208C08E3C81F480919E02181601
:102CB0009CF3442381F080919F029091A002892B84
:102CC000811159C01092980208958F3C41F447FF3A
:102CD000F0CF10929D0280919E028823E0CF803D2C
:102CE00019F41416B4F3E5CF90919F02893D29F4AD
:102CF0001916FCF610929F02DCCF8A3D19F497FF5B
:102D0000D8CFF8CF9091A0028B3D29F497FFD1CF77
:102D10001092A002CECF8C3D19F41916CCF3C9CF76
:102D20009FE2980F983090F4815D990B21E030E09C
:102D3000B90102C0660F771F8A95E2F7CB01809533
:102D400090919C02892380939C02B3CF8D3D31F4F6
:102D500080919A028E7F80939A02ABCF8E3D21F4B0
:102D600080919A028D7FF7CF8F3D09F0A2CF80919D
:102D70009A028B7FF0CF08950E94ED1A20919D0258
:102D800030919E02232B222321F080939602909370
:102D9000970220919F023091A002232B222321F041
:102DA00080939402909395028BE992E00E94CD1853
:102DB000089586E0EBE9F2E0DF011D928A95E9F7DC
:102DC000109299021092980210929A020895FC01B2
:102DD000828181110DC0838181110AC0848181119A
:102DE00007C081E09581911101C080E08170089554
:102DF00081E0FCCFA6E0B0E0E0E0F7E10C94FF2337
:102E000086E0EBE9F2E09E012F5F3F4FD901019090
:102E10000D928A95E1F710929D0210929E021092F7
:102E20009F021092A0028B819C81892B89018823AB
:102E300091F080919602909197020E94161B9C013E
:102E4000809199028823C9F14091230150E04217F3
:102E5000530708F43FC08D819E81892B882399F008
:102E600080919402909195020E94161B9C01809182
:102E70009802882309F467C040911F0150E042176F
:102E8000530708F46EC0B8018BE992E00E941F1A44
:102E9000811105C08BE992E00E94E71681110E9422
:102EA000BC1686E0F801ABE9B2E001900D928A957C
:102EB000E1F72696E5E00C941B24409124019AE06A
:102EC000499FA00111244217530728F68F5F809372
:102ED000990202C08F3FD1F7FB80FF2059F00E947A
:102EE000771591E01F140CF09FEF899F802D11241E
:102EF00080939D02FC80FF2059F00E94771591E09D
:102F00001F140CF09FEF899F802D112480939E0247
:102F100080919D02882309F49ECFF0909E02FF20AD
:102F200009F499CF0E946915811101C081E0809355
:102F30009D028F2D0E946915882319F080939E02AF
:102F40008ACF81E0FBCF409120019AE0499FA00108
:102F500011244217530708F096CF8F5F8093980291
:102F600002C08F3FD1F7FD80FF2059F00E94BF15AE
:102F700091E01F140CF09FEF899F802D1124809306
:102F80009F02FE80FF2059F00E94BF1591E01F14A0
:102F90000CF09FEF899F802D11248093A0028091D7
:102FA0009F02882309F46FCFF090A002FF2009F45C
:102FB0006ACF0E946915811101C081E080939F0250
:102FC0008F2D0E946915882319F08093A0025BCF92
:102FD00081E0FBCF0F931F93CF93DF93C42FD22FAA
:102FE000FC0185818823C9F04093A3020E94ED1A59
:102FF0009093A2028093A10280E28C0F883040F46B
:10300000C77081E001C0880FCA95EAF70E94F403F7
:10301000DF91CF911F910F9108951091A302141386
:103020003CC08091A1029091A2020E94161B883C94
:10303000910598F5C0E2CD0F1D1741F180E2810F97
:10304000883040F4177081E001C0880F1A95EAF7C4
:103050000E94FB03C83020F0802F0E94EB03D8CFE2
:1030600091E08D2F877001C0990F8A95EAF7892F1B
:103070000E94F403802F0E94EB03D77081E001C00F
:10308000880FDA95EAF70E94FB03C2CF802F0E94D7
:10309000EB03C83008F0BCCFF0CF80E28C0F883053
:1030A00008F0B6CFC77081E001C0880FCA95EAF773
:1030B000EACF0F93FC01CB01E851FC47E730F10563
:1030C00090F5E851FB4D0C94EC2306E221EE41EE25
:1030D0006AE17CE70E94EA1780E00F91089507E219
:1030E00025EE45EE6BE17CE7F5CF06E221EE40EE02
:1030F00068E17CE7EFCF07E225EE44EE69E17CE78B
:10310000E9CF06E221EE42EE6CE17CE7E3CF07E295
:1031100025EE46EE6DE17CE7DDCF08E221E045EEED
:103120006EE17CE7D7CFFB01858181111092A3026C
:1031300081E0D3CF9093AA028093A90208950E94C0
:10314000FA11811103C08091A4020895E091A902AF
:10315000F091AA02309729F00190F081E02D0995B5
:10316000089580E00895E091A902F091AA023097B5
:1031700021F00280F381E02D09950895DC01E091B2
:10318000A902F091AA02309739F086E08C9304806E
:10319000F581E02DCD0109950895DC01E091A902AA
:1031A000F091AA02309739F082E08C930680F78183
:1031B000E02DCD0109950895A3E0B0E0E2EEF8E13D
:1031C0000C9402249C018091A7029091A80282177E
:1031D0009307A1F03093A8022093A702E091A902DF
:1031E000F091AA02309751F083E089833B832A83D0
:1031F0000084F185E02DCE01019609952396E2E049
:103200000C941E24A3E0B0E0E8E0F9E10C94022461
:103210009C018091A5029091A60282179307A1F0CC
:103220003093A6022093A502E091A902F091AA0290
:10323000309751F084E089833B832A830084F185B1
:10324000E02DCE01019609952396E2E00C941E2410
:1032500020910201309103012E5F3F4F80912F0199
:103260008823A9F08091B70287FF11C02091000147
:10327000309101012E5F3F4F9DE180E0F9014081D7
:103280002F5F3F4F41118F5F9150C0F7089595E038
:10329000F4CF882321F190912F01992311F190917E
:1032A000B70297FF1EC0982F969596959695803FEA
:1032B000B0F4E0910001F0910101E90FF11D2281CC
:1032C00030E0877041E050E0BA0102C0660F771F1E
:1032D0008A95E2F72623372381E0232B91F480E0BF
:1032E00008952091020130910301F9013296285F7F
:1032F0003F4F9191981721F0E217F307D1F7EFCFE5
:1033000081E008959C01FC0132968FEF90E041919D
:10331000461751F08F3F19F4411101C0892F9F5F6B
:103320009630A9F78F3F09F40895280F311D87FDC6
:103330003A95F901628308959C01FC013296285F59
:103340003F4F8191861303C0DF0111971C92E21752
:10335000F307B9F70895FC01862F86958695869523
:10336000603F60F4E80FF11D677021E030E001C0BC
:10337000220F6A95EAF78281822B82830895FC01ED
:10338000862F869586958695603F80F4E80FF11D1F
:10339000677081E090E09C0102C0220F331F6A95A4
:1033A000E2F7B90160958281682362830895682FEE
:1033B00080912F01882359F08091B70287FF07C0C1
:1033C00080910001909101010E94AB1908958091B4
:1033D0000201909103010E9482190895682F809143
:1033E0002F01882359F08091B70287FF07C0809191
:1033F0000001909101010E94BF190895809102017E
:10340000909103010E949C19089580912F018823B7
:1034100079F08091B70287FF0BC0E0910001F09135
:10342000010132968EE1DF011D928A95E9F7089538
:10343000E0910201F0910301329686E0F4CFDC01C5
:10344000FB0111969C9111978181981322C01296CD
:103450008C911297882319F0928189131AC01396C0
:103460008C911397882319F09381891312C01596B4
:103470008C911597882319F0958189130AC01496A9
:103480009C91992321F081E02481291303C080E0DD
:1034900001C081E08170089508950E944C1A08953A
:1034A0008F5F8093AB020E944D1A089583E0809352
:1034B000AB020E944D1A08950E94501A089581E0AF
:1034C0008093AB020E944D1A08950E945F1A0895DE
:1034D000089508950E94691A0895089508950E9414
:1034E000681A0895CF930E946D1A0E944E110E948F
:1034F0006E1AC0E08C2F0E942110811105C0CF5F91
:10350000C630C1F7CF91089581E0FCCF85B78068C0
:1035100085BF85B7806885BF08951F921FB61F922B
:1035200011248F939F93AF93BF938091AC0281112D
:1035300013C08091CB029091CC02A091CD02B091AA
:10354000CE024196A11DB11D8093CB029093CC0277
:10355000A093CD02B093CE02BF91AF919F918F9176
:103560001F901FBE1F9018958091D302843031F1B7
:103570000E94D3021092AC0288E190E020E40FB6E2
:10358000F894A895809360000FBE2093600083B7E5
:10359000817F846083BF83B7816083BF789488957F
:1035A00083B78E7F83BF0FB6F894A8958091600093
:1035B000886180936000109260000FBE08950E94A1
:1035C00051060E94D802089582E084BD93E095BD23
:1035D0009AEF97BD80936E0008952FB7F89480916D
:1035E000CB029091CC02A091CD02B091CE022FBF20
:1035F0000895A4E0B0E0EFEFFAE10C9402248FB755
:10360000F8942091CB023091CC024091CD025091A0
:10361000CE0229833A834B835C838FBF69817A8191
:103620008B819C812496E2E00C941E249C014FB770
:10363000F8948091CB029091CC02A091CD02B091F0
:10364000CE024FBF821B930B0895A4E0B0E0EBE2E3
:10365000FBE10C940024462F572FBC012FB7F894A0
:103660008091CB029091CC02A091CD02B091CE027C
:103670002FBF8C019D01041B150B260B370BC901B5
:10368000B8012496E4E00C941C2478941F921FB691
:103690001F9211248F939F93AF93BF938091CB027E
:1036A0009091CC02A091CD02B091CE020196A11DC5
:1036B000B11D8093CB029093CC02A093CD02B09326
:1036C000CE02BF91AF919F918F911F901FBE1F900F
:1036D000189587E797E7909301088093000888E1A1
:1036E0009AE00FB6F894A895809360000FBE90936F
:1036F0006000FFCF88E19AE00FB6F894A895809318
:1037000060000FBE90936000FFCF8EE14A9B03C024
:1037100081508111FBCF4A9BFECF08955A9880E2D9
:103720008A95F1F75A9A0895FC013BE03A95F1F732
:1037300098E020E080E031E040E14A95F1F7880F21
:103740004A9B02C08160232742E04A95F1F70000BE
:1037500040E14A95F1F791509111EECF90E19A95A1
:10376000F1F799B132E03A95F1F7000040E14A955E
:10377000F1F792FB992790F992272081920F90837D
:103780000895A1E0B0E0E7ECFBE10C94FE23198280
:103790008C017C01E60EF11C0E151F0541F481E041
:1037A0009981911180E02196E6E00C941A240E9400
:1037B000851BCE0101960E94941BF80181938F0115
:1037C000EBCF529A5A9A089552985A9AEA9AE9E691
:1037D000F0E080818F7C808308956150770B91E0C9
:1037E00001C0990F6A95EAF7692F90E021E0611115
:1037F00008C0992399F05A9A80E28A95F1F75A986D
:103800000895362F3823332339F05A9A922730E21D
:103810003A95F1F76695EBCF5A98F9CF5A98ECCFD5
:10382000FF920F931F93CF93DF93EC018C01060F50
:10383000111DC017D10729F4CDB7DEB7E5E00C9410
:103840001B24F9900E948E1B68E08F2D0E94ED1BB7
:10385000F0CF1F920F920FB60F9211240F931F9368
:103860002F933F934F935F936F937F938F939F9388
:10387000AF93BF93EF93FF93CF93DF930F92CDB7A7
:10388000DEB719820E94851BCE0101960E94941B0F
:10389000082F069506950695982F92959570202FDE
:1038A0002570920F292F237096959695920F982741
:1038B00097708981892B81115CC0043008F059C050
:1038C00080E18A95F1F75A9A529A82E08A95F1F747
:1038D00000C05A9888E0089F80011124D801AB5F8E
:1038E000BE4F1696ED91FC9117973097A9F0609115
:1038F000A6017091A70114962D913C911597260F62
:10390000371F11968D919C911297680F791F13960E
:103910004C9113978C910995F801EB5FFE4F6381F1
:10392000662351F02091A6013091A70184819581F1
:10393000820F931F0E94101C0E948E1B80E18A95AB
:10394000F1F75A9852985A9A80E18A95F1F7F8015E
:10395000EB5FFE4F6081662351F02091A60130910C
:10396000A70181819281820F931F0E94C11B0E9437
:10397000851B0F90DF91CF91FF91EF91BF91AF9198
:103980009F918F917F916F915F914F913F912F9177
:103990001F910F910F900FBE0F901F9018950F93CE
:1039A0001F93CF93DF938C0104970CF065C0F894BC
:1039B000529A5A9885E08A95F1F70000C02FC69573
:1039C000C570802F8570C80F8C2F8370C695C695E3
:1039D00093E0000F111F9A95E1F7C80FC8018C2BD7
:1039E000EC010E948E1B00C068E08C2F0E94ED1B32
:1039F00090E19A95F1F752985A9A4A9B35C087E020
:103A000090E04A9933C0F801EB5FFE4F6381662373
:103A100061F02091A6013091A70184819581820FE8
:103A2000931F0E94C11B882321F10E94851B80E205
:103A30008A95F1F75A98529A90E19A95F1F7F80120
:103A4000EB5FFE4F6081662351F02091A60130911B
:103A5000A70181819281820F931F0E94101C0E94F6
:103A60008E1B789481E009C000C0C7CF01970097F2
:103A700049F4529A5A9A789480E0DF91CF911F913D
:103A80000F91089500C0BDCF8091B5020895282FF1
:103A9000CB01BA013091D3023430E1F42F7020937E
:103AA000E9002FEF3091E80035FD07C035ED3A957C
:103AB000F1F7000021502111F5CF2091E80025FFFA
:103AC00009C040E050E00E944B1F8091E8008E77D3
:103AD0008093E8000895BC0143E050E082E00E943A
:103AE000471D0895BC0146E050E082E00E94471D5A
:103AF0000895BC0140E250E082E00E94471D089515
:103B0000CF93DF93D82FC92F48E050E0682F792F4B
:103B100081E00E94471D88E0ED2FFC2FADEAB2E066
:103B200001900D928A95E1F7DF91CF9108958091F0
:103B3000D202811109C00E94D3200E9430218091BD
:103B4000E20084608093E20008951092D20208950A
:103B50000E945F1A08956091CF0281E0611101C057
:103B600080E00E94561A08959091D30281E094302B
:103B700009F080E06091CF020E945C1A089542E053
:103B800061EC81E00E944F2042E261EC82E00E9401
:103B90004F209091D30281E0943009F080E0609151
:103BA000CF020E94501A08958091D502893089F180
:103BB00048F4823009F4A0C0833009F45AC081303F
:103BC00041F008958A3009F487C08B3009F46CC045
:103BD00008958091D402813A09F04AC08091E800AA
:103BE000877F8093E8008091D8029091D902892B39
:103BF00061F060E080E090E070E00E949A1F8091A8
:103C0000E8008B778093E800089568E08DEA92E001
:103C1000F3CF8091D402813259F58091D8029091EE
:103C2000D902029728F58091E800877F8093E80009
:103C30008091E80082FF18C09091F3008091F2001B
:103C4000029731F48091F100813011F0863021F437
:103C50008091F1008093B5028091E8008B7780938A
:103C6000E8000E94832004C08091D3028111E0CF3C
:103C700008958091D402813AD9F78091D802909129
:103C8000D902892BA9F78091E800877F8093E8000B
:103C90008091E80080FFFCCF80912F018093F1009C
:103CA0008091E8008E77DBCF8091D402813201F7DA
:103CB0008091D8029091D902892BD1F68091E800A9
:103CC000877F8093E8000E9483208091D6028093B2
:103CD0002F010E94510608958091D402813241F64D
:103CE0008091E800877F8093E8000E948320809184
:103CF000D7028093B60208958091D402813A09F0E8
:103D0000B7CF8091E800877F8093E8008091E8003A
:103D100080FFFCCF8091B602C1CF84B7877F84BF7C
:103D20000FB6F894A8958091600088618093600038
:103D3000109260000FBE80E890E00FB6F894809378
:103D40006100909361000FBE0E94651A08950E9461
:103D5000D3200E943021E2EEF0E0808184608083F5
:103D600078940E94B323089585E291E00E949A1806
:103D700008958091D302853031F48091D30285304B
:103D800019F00E94DF1A08950E94B41A0E94721A54
:103D9000882399F38091D102882379F30E94351FFB
:103DA0000E945106EACF08959A014091DA0250919B
:103DB000DB020E94DC1E0895AC01CB01D901252F46
:103DC000332723303105E1F058F421303105C9F1B2
:103DD00022303105D9F180E090E020E030E01EC0D3
:103DE0002132310521F122323105A9F7892BC1F1A8
:103DF0006130710581F786EB90E023E732E00EC079
:103E0000CA019927413069F08230910569F0E2E2F8
:103E1000F2E0892B01F7849190E09F012D933C9370
:103E20000895E6E0F2E0F7CFECEFF1E0F4CF892B74
:103E300091F06130710579F689E090E021E532E09A
:103E4000EDCF82E190E021E632E0E8CF8BE390E035
:103E500026E232E0E3CF89E090E028E332E0DECFF3
:103E600084E490E029E233E0D9CF80E189BD82E1AA
:103E700089BD09B400FEFDCF8091D8008F7D80936D
:103E8000D8008091E00082608093E0008091E000A3
:103E900081FDFCCF0895AF92BF92CF92DF92FF9247
:103EA0000F931F93CF93DF936C01EB018A010E9464
:103EB000A220F82E811123C00115110539F0F80157
:103EC00080819181C81BD90BC80ED91EA12CB12CA1
:103ED0002097A9F08091E80085FD22C08091E8003C
:103EE0008E778093E80001151105A1F0F80180811B
:103EF00091818A0D9B1D9183808385E0F82E8F2D03
:103F0000DF91CF911F910F91FF90DF90CF90BF90E5
:103F1000AF9008950E94A2208823E1F2F82EEFCFFF
:103F2000F60181916F018093F1002197FFEFAF1AA5
:103F3000BF0ACECFFC019B018091DA029091DB0297
:103F40008617970718F0672B61F0C90140E00097CA
:103F500071F441110CC08091E80082FF35C080E00F
:103F600008958091E8008E778093E800EECF20914D
:103F7000D3022223A9F12530A9F12091E80023FDE5
:103F80002DC02091E80022FDE6CF2091E80020FF1F
:103F9000DECF3091F3002091F200009719F0283025
:103FA000310558F041E02830310509F040E020911A
:103FB000E8002E772093E800CACF41914093F100AA
:103FC00001972F5F3F4FE9CF8091D302882341F0C3
:103FD000853041F08091E80083FFBDCF81E00895F6
:103FE00082E0089583E00895FC019B018091DA024C
:103FF0009091DB028617970718F0672B61F0C901D3
:1040000040E0009771F441110CC08091E80082FFFC
:1040100036C080E008958091E8008E778093E800B4
:10402000EECF2091D3022223B1F12530B1F12091BE
:10403000E80023FD2EC02091E80022FDE6CF20916C
:10404000E80020FFDECF3091F3002091F2000097CE
:1040500019F02830310558F041E02830310509F0D9
:1040600040E02091E8002E772093E800CACF4491E9
:104070004093F100319601972F5F3F4FE8CF809139
:10408000D302882341F0853041F08091E80083FF1E
:10409000BCCF81E0089582E0089583E00895982FD1
:1040A000973028F08F708093E90081E00895909315
:1040B000E900242F762F50E0981731F07091EC0032
:1040C0002091ED005091F00021FD02C09F5FE8CFEC
:1040D0003091EB003E7F3093EB003091ED003D7F5F
:1040E0003093ED003091EB0031603093EB00709332
:1040F000EC002093ED005093F0002091EE0027FD9E
:10410000E5CF80E008958091D40287FF13C08091AD
:10411000E80082FF06C08091E8008B778093E8007A
:1041200004C08091D3028111F2CF08958091D3020F
:104130008823D9F38091E80080FFF8CF8091E800D0
:104140008E77ECCF2091E4003091E50095E6A9014F
:104150008091EC008170882331F08091E80080FF2D
:1041600006C080E008952091E80022FD1BC08091E8
:10417000D302882391F0853091F08091EB0085FD8A
:1041800010C02091E4003091E5004217530701F37D
:1041900091509111DCCF84E0089582E0089583E08E
:1041A000089581E008950E9442210E944A21E0EE94
:1041B000F0E0808181608083E8EDF0E080818F779E
:1041C000808319BCA7EDB0E08C918E7F8C938081A9
:1041D0008F7E80831092D20208950F931F93CF9306
:1041E000DF930E9442210E944A21C8EDD0E08881DD
:1041F0008F77888388818068888388818F7D888392
:1042000019BC1092D3021092CF021092D1021092D8
:10421000D00200EE10E0F80180818B7F80838881DE
:104220008160888342E060E080E00E944F20E1EE00
:10423000F0E080818E7F8083E2EEF0E0808181601B
:104240008083808188608083F80180818E7F808375
:10425000888180618883DF91CF911F910F910895AC
:10426000E8EDF0E080818F7E8083E7EDF0E08081F3
:104270008160808384E082BF81E08093D2020E94CB
:10428000ED200895E8EDF0E080818E7F808310922C
:10429000E20008951092DA001092E10008951F9252
:1042A0000F920FB60F9211242F933F934F935F936A
:1042B0006F937F938F939F93AF93BF93EF93FF93EE
:1042C0008091E10082FF0BC08091E20082FF07C075
:1042D0008091E1008B7F8093E1000E94B223809166
:1042E000DA0080FF19C08091D80080FF15C080914E
:1042F000DA008E7F8093DA008091D90080FF94C02D
:1043000080E189BD82E189BD09B400FEFDCF81E075
:104310008093D3020E94971D8091E10080FF19C015
:104320008091E20080FF15C08091E2008E7F809333
:10433000E2008091E20080618093E2008091D800E9
:1043400080628093D80019BC85E08093D3020E94DC
:10435000AB1D8091E10084FF29C08091E20084FFC1
:1043600025C080E189BD82E189BD09B400FEFDCF91
:104370008091D8008F7D8093D8008091E1008F7E5E
:104380008093E1008091E2008F7E8093E200809133
:10439000E20081608093E2008091CF02882309F4DB
:1043A00049C084E08093D3020E94B41D8091E10053
:1043B00083FF29C08091E20083FF25C08091E10046
:1043C000877F8093E10082E08093D3021092CF0236
:1043D0008091E1008E7F8093E1008091E2008E7FEA
:1043E0008093E2008091E20080618093E20042E0ED
:1043F00060E080E00E944F208091F0008860809310
:10440000F0000E94A81DFF91EF91BF91AF919F9185
:104410008F917F916F915F914F913F912F910F906D
:104420000FBE0F901F90189519BC1092D3020E94D6
:10443000A51D72CF8091E30087FF02C083E0B2CF59
:1044400081E0B0CF1F920F920FB60F921124FF920E
:104450000F931F932F933F934F935F936F937F938C
:104460008F939F93AF93BF93CF93DF93EF93FF937C
:1044700009EE10E0F8018081C091EC00C795CC27CF
:10448000C7958F70FC2EF82A1082C0EFD0E088818B
:10449000877F888378940E946B22F801108288813C
:1044A00088608883CF2DCF70C083FF91EF91DF911B
:1044B000CF91BF91AF919F918F917F916F915F91BC
:1044C0004F913F912F911F910F91FF900F900FBE31
:1044D0000F901F901895AAE2B0E0E1E7F2E20C9489
:1044E000012484ED92E0FC0101962091F1002083EB
:1044F00022E08C3D9207B9F70E94D41D8091E8001C
:1045000083FF38C08091D4029091D5029A3090F503
:10451000E92FF0E0E151FB4D0C94EC23803889F059
:10452000823841F58091D8028F70873018F58093DA
:10453000E9008091EB0085FB882780F91092E90063
:1045400006C08091D0029091D10291118260909129
:10455000E800977F9093E8008093F1001092F100BB
:104560008091E8008E7723C0811116C08091D60219
:10457000813011F18091E80083FF0AC08091E8004A
:10458000877F8093E8008091EB0080628093EB004E
:10459000AA96E3E00C941D24823061F78091D60244
:1045A000882389F01092E9008091E800877F80934A
:1045B000E8000E948320DECF81E0933009F080E0A4
:1045C0008093D102EFCF8091D8028F702FEF280F08
:1045D000263080F68093E9002091EB0020FFE2CFA7
:1045E000933031F48091EB0080628093EB00DACF5E
:1045F0009091EB0090619093EB0021E030E0A901F5
:1046000002C0440F551F8A95E2F74093EA001092CA
:10461000EA008091EB008860E8CF8111ABCF109168
:10462000D6021F778091E3008078812B8093E3008E
:104630008091E800877F8093E8000E94832080912A
:10464000E80080FFFCCF8091E30080688093E30066
:1046500083E0111101C082E08093D3028BCF805898
:10466000823008F087CF8091D6029091D7028C3D9E
:1046700053E0950799F583E08A838AE289834FB7EF
:10468000F894DE01139620E03EE051E2E32FF0E0E3
:1046900050935700849120FF03C082958F703F5F35
:1046A0008F708A30C8F0895C90E08D939D932F5F66
:1046B000243161F74FBF8091E800877F8093E80045
:1046C0006AE270E0CE0101960E949A1F8091E80094
:1046D0008B778093E8004ECF805DE6CF6091D80263
:1046E0007091D902AE014F5F5F4F0E94D41EBC0192
:1046F000892B09F43FCF8091E800877F8093E80001
:1047000089819A810E94F41FE1CF803809F032CF6D
:104710008091E800877F8093E8008091CF028093AA
:10472000F1001ECF811126CF9091D602923008F071
:1047300021CF8091E800877F8093E8009093CF029B
:104740000E9483208091CF02882331F084E08093FF
:10475000D3020E94BF1D0ECF8091E30087FDF6CFEC
:1047600081E0F5CF0895CF938091D302882399F00B
:104770008091E900C091EC00C795CC27C7958F7058
:10478000C82B1092E9008091E80083FD0E946B2203
:10479000CF70C093E900CF9108950E94D32010926A
:1047A000D30208958091E300881F8827881F089509
:1047B00097FB072E16F4009407D077FD09D00E94CE
:1047C000292407FC05D03EF4909581959F4F0895CC
:1047D000709561957F4F0895EE0FFF1F0590F4913E
:1047E000E02D09942F923F924F925F926F927F92A9
:1047F0008F929F92AF92BF92CF92DF92EF92FF92F1
:104800000F931F93CF93DF93CDB7DEB7CA1BDB0B9C
:104810000FB6F894DEBF0FBECDBF09942A88398841
:1048200048885F846E847D848C849B84AA84B98448
:10483000C884DF80EE80FD800C811B81AA81B98154
:10484000CE0FD11D0FB6F894DEBF0FBECDBFED0168
:104850000895AA1BBB1B51E107C0AA1FBB1FA617C7
:10486000B70710F0A61BB70B881F991F5A95A9F719
:1048700080959095BC01CD010895FB01DC0104C039
:104880008D910190801921F441505040C8F7881B48
:10489000990B0895FB01DC0102C001900D9241507B
:1048A0005040D8F70895F999FECF92BD81BDF89A8E
:1048B000992780B50895A8E1B0E042E050E00C945B
:1048C0009724DC01A40FB51F4150504048F0CB01A4
:1048D000840F951F2E910E94722441505040D0F7B2
:1048E0000895262FF999FECF92BD81BDF89A0197C0
:1048F00000B4021639F01FBA20BD0FB6F894FA9A28
:10490000F99A0FBE08950396272F0E9472240E94E1
:104910007124252F0E947224242F0C947224019656
:10492000272F0E9472240C947124DC01CB01FC011E
:10493000F999FECF06C0F2BDE1BDF89A319600B4F8
:104940000D9241505040B8F70895F894FFCF4004BD
:10495000400487048704EC0409056F046F040E0506
:10496000850596059605E5145915ED14B714BB1485
:10497000F114BF14F5140115CB145215CF140515FD
:10498000D31409153115D7140D153815DD14131569
:104990001B15C314F914C714FD14E11417152715BA
:1049A00041155015B114E914601504160A160D16B8
:1049B000131628162816281628162816281628161C
:1049C000281616161B161F16251636163C164016E8
:1049D00075187B1865186F18811887188D188E2226
:1049E000B422BA22B422BA220D232F23BA2285235D
:0249F000922310
:1049F200380258020100000001000000000000001F
:104A02000301000000040400000000000028085018
:104A1200011E0A1401441D801D791D721D6B1D01AA
:104A2200E200E900EA00B500B600B700CD0083015C
:104A3200CC008A0192019401210223022402250260
:104A4200260227022A02B300B4006F0070009F0101
:104A5200CB019F02A002E200E900EA00B500B60025
:104A6200B700CD008301CC008A019201940121029A
:104A7200230224022502260227022A02B300B400DE
:104A82006F0070009F01CB019F02A0029394669772
:084A9200C63435F6F7317C0251
:00000001FF
